:100000000C94D91B0C940A1C0C940A1C0C940A1C0A
:100010000C940A1C0C940A1C0C940A1C0C940A1CC8
:100020000C940A1C0C940A1C0C940A1C0C940A1CB8
:100030000C940A1C0C9443E20C940A1C0C940A1CA9
:100040000C940A1C0C94A32E0C940A1C0C940A1CED
:100050000C940A1C0C940A1C0C947C2C0C94B7F77E
:100060000C940A1C0C9495AF0C945FAF0C940A1C72
:100070000C940A1C0C940A1C0C940A1C0C940A1C68
:100080000C9436860C940A1C0C940A1C0C940A1CC2
:100090000C940A1C0C940A1C0C940A1C0C940A1C48
:1000A0000C940A1C0C940A1C0C9408860C940A1CD0
:1000B0000C940A1C0C940A1C0C940A1C0C94DA85EF
:1000C0000C940A1C0C940A1C0C940A1C0C940A1C18
:1000D0000C940A1C0C940A1C0C94995B0C945A5BAB
:1000E0000C940A1C05A84CCDB2D44EB93836A902DE
:1000F0000C50B9918688083CA6AAAA2ABE00000026
:10010000803F0C9420EF0C94F2C50C94E8C50C943D
:100110006DE30C94F6C50C942FB00C940DF00C9478
:10012000A5E30C94CEF20C94197B0C9404C60C94A9
:100130000DB00C9400C60C9482C50C9408C60C94A7
:10014000ECC50C9444F50C94F0E30C9446E80C9444
:100150000DC60C9446F30C94071E0C9423B00C941B
:1001600077E30C9468E60C941DEF0C9416F30C9452
:100170009BE70C94DCE30C94DBC50C940EC60C944A
:10018000341E0C94CDC50C94DEF80C94BFEF0C9487
:1001900036F00C944D1E0C9433E70C94AFE30C94A2
:1001A00037B00C9480EF0C942BB00C945AF00C9454
:1001B000C0E60C94BEE30C9412C60C94DFC50C94FC
:1001C00027B00C94631E0C94CFAF0C9491E30C9465
:1001D000F5EE0C9415F10C9441EE0C944CE60C9455
:1001E0004FF50C9486E60C9431E60C941FB00C94F9
:1001F00086F20C9463E30C94FEAF0C94121E0C94E4
:100200004FEE0C94C8E30C94E6E30C94D7C50C9421
:10021000C4F00C94D3C50C94C61D0C94FAC50C9470
:1002200018B00C949CE60C9489E30C9456E30C945F
:10023000FEE50D942D020C9481E30C949BE30C9449
:10024000E2C50C946FF00C94D2E30C945EE34E4143
:100250004E494E495459494E46CDCCCC3D0AD72340
:100260003C17B7D13877CC2B329595E6241FB14F88
:100270000A000020410000C84200401C4620BCBECD
:100280004CCA1B0E5AAEC59D744361703A00290AD0
:100290000020746F20003F5A206F7574206F662015
:1002A00072616E6765202800290A0020746F2000A3
:1002B0003F59206F7574206F662072616E676520EC
:1002C000282D00290A0020746F20003F58206F75E8
:1002D00074206F662072616E676520282D00507251
:1002E0006F6265204F6666736574205800220A00AD
:1002F000656E7175657565696E672022006F6B00AC
:10030000526573656E643A20002569730025696D36
:1003100020256973002569682025696D202569738A
:1003200000256964202569682025696D2025697389
:100330000025697920256964202569682025696D73
:10034000202569730023646566696E65204445460F
:1003500041554C545F0000626564004B6420004BC3
:100360006920004B702000504944204175746F741F
:10037000756E652066696E697368656421205075C5
:100380007420746865206C617374204B702C204B52
:100390006920616E64204B6420636F6E7374616EBC
:1003A00074732066726F6D2062656C6F7720696E62
:1003B000746F20436F6E66696775726174696F6EE2
:1003C0002E680A00504944204175746F74756E653B
:1003D000206661696C6564212074696D656F757450
:1003E0000A00504944204175746F74756E6520662B
:1003F00061696C6564212054656D70657261747506
:10040000726520746F6F20686967680A00204B640A
:100410003A2000204B693A2000204B703A20000A15
:1004200020436C617373696320504944200A0020A3
:100430004B643A2000204B693A2000204B703A2050
:10044000000A204E6F206F76657273686F6F740AB2
:10045000002054753A2000204B753A2000206D6131
:10046000783A2000206D696E3A200020643A20001E
:1004700020626961733A2000504944204175746FCD
:1004800074756E652073746172740A00504944205B
:100490004175746F74756E65206661696C65642161
:1004A0002054656D706572617475726520746F6F2C
:1004B00020686967680A00504944204175746F7468
:1004C000756E65206661696C6564212042616420F7
:1004D0006578747275646572206E756D6265720AF6
:1004E00000206D61783A00206D696E3A00417869AC
:1004F00073200000009B4300009B43008098430052
:100500000000000000000000000000290A00206236
:10051000797465733B20637263200053657474695A
:100520006E67732053746F726564202800454550D0
:10053000524F4D206461746173697A6520657272EF
:100540006F722E0A00290A002062797465733B20BD
:1005500063726320002073746F7265642073657426
:1005600074696E677320726574726965766564205C
:100570002800202863616C63756C617465642921AF
:100580000A0020213D2000454550524F4D20435246
:1005900043206D69736D61746368202D2028737426
:1005A0006F7265642920002053697A653A200049FA
:1005B0006E6465783A2000204D61726C696E3D561C
:1005C0003736290A00454550524F4D2076657273E3
:1005D000696F6E206D69736D61746368202845458D
:1005E00050524F4D3D00454550524F4D20496E6988
:1005F0007469616C697A65640A0048617264636F4A
:100600006465642044656661756C74205365747418
:10061000696E6773204C6F616465640A000000F0C6
:10062000420000F042000090410000A0420000A003
:10063000420000A042000048440000C8439001006E
:1006400000900100003C000000102700003B20004B
:100650003A0A0020204D36303320002055004C004F
:1006600046696C616D656E74206C6F61642F756E88
:100670006C6F6164206C656E677468733A0020204B
:100680004D393030204B004C696E656172204164F9
:1006900076616E63653A0020204D38353120580070
:1006A0005A2D50726F6265204F6666736574002024
:1006B000440020490020204D333034205000204495
:1006C0000020490020204D33303120500050494453
:1006D0002073657474696E67733A0020204D363656
:1006E0003600456E6473746F702061646A7573744C
:1006F0006D656E743A00204A002020473239205739
:1007000020490020204D3432302053004175746F51
:1007100020426564204C6576656C696E673A0020FE
:10072000204D323036205800486F6D65206F666668
:100730007365743A00204A0020530020204D323067
:1007400035204200416476616E6365643A20423C24
:100750006D696E5F7365676D656E745F74696D65F5
:100760005F75733E20533C6D696E5F6665656472AC
:100770006174653E20543C6D696E5F74726176658C
:100780006C5F66656564726174653E204A3C6A759B
:100790006E635F6465763E00205400205200202086
:1007A0004D323034205000416363656C6572617472
:1007B000696F6E2028756E6974732F7332293A2021
:1007C000503C7072696E745F616363656C3E205269
:1007D0003C726574726163745F616363656C3E2033
:1007E000543C74726176656C5F616363656C3E0056
:1007F00020204D3230312058004D6178696D756D83
:1008000020416363656C65726174696F6E20287541
:100810006E6974732F7332293A0020204D323033C1
:100820002058004D6178696D756D2066656564724C
:10083000617465732028756E6974732F73293A008B
:1008400053746570732070657220756E69743A0018
:1008500020204D3230302044300A0020204D3230EC
:10086000302044002044697361626C65640A00466C
:10087000696C616D656E742073657474696E6773FD
:100880003A0020286D6D2900202047323120202099
:10089000203B20556E69747320696E206D6D006F6A
:1008A00070656E00545249474745524544003A200E
:1008B000007A5F70726F6265007A325F6D696E00F8
:1008C0007A5F6D696E00795F6D696E00785F6D6942
:1008D0006E005265706F7274696E6720656E647326
:1008E000746F70207374617475730A00203A2073FA
:1008F000796E635F706C616E5F706F736974696F3E
:100900006E0A00202063757272656E745F706F737B
:100910006974696F6E3D003C3C3C20646F5F626CA3
:100920006F636B696E675F6D6F76655F746F0A00EA
:100930003E3E3E20646F5F626C6F636B696E675F03
:100940006D6F76655F746F0020746F6F206C6F6ED3
:100950006720657874727573696F6E207072657642
:10096000656E7465640A0020636F6C64206578743A
:10097000727573696F6E2070726576656E746564EA
:100980000A00290A003C3C3C20646F5F686F6D6977
:100990006E675F6D6F76652800290A005D005B0059
:1009A0002C20002C20003E3E3E20646F5F686F6D5F
:1009B000696E675F6D6F7665280020706F7369746C
:1009C000696F6E5F7368696674203D200020686FF0
:1009D0006D655F6F6666736574203D2000417869C0
:1009E000732000290A003C3C3C207365745F6178E9
:1009F00069735F69735F61745F686F6D652800205C
:100A00003A200A00202063757272656E745F706F01
:100A1000736974696F6E3D005D203D20003E206863
:100A20006F6D655F6F66667365745B002A2A2A20A6
:100A30005A20484F4D454420544F20454E4453546E
:100A40004F50202A2A2A0A0000000000000000005F
:100A500000000000290A003E3E3E207365745F617D
:100A60007869735F69735F61745F686F6D65280093
:100A700000002042000020420000C0405761726E1A
:100A8000696E673A20486F6D696E672042756D70B8
:100A90002044697669736F72203C20310A0002029B
:100AA00004290A003C3C3C20686F6D6561786973DD
:100AB0002800203A203E2041465445522073657458
:100AC0005F617869735F69735F61745F686F6D659B
:100AD0000A00202063757272656E745F706F7369AF
:100AE00074696F6E3D00486F6D65203220536C6FE6
:100AF000773A0A004D6F766520417761793A0A00AE
:100B00000000A0400000A0400000004000009B4307
:100B100000009B4300809843486F6D65203120465C
:100B20006173743A0A00FFFFFF290A003E3E3E202F
:100B3000686F6D656178697328000000000100002E
:100B4000000100008000555555000000400033337F
:100B50003300AAAA2A004992240000002000C7718D
:100B60001C0099991900D1451700555515003BB146
:100B700013002449120011111100000010000F0F82
:100B80000F00E3380E0043790D00CCCC0C00C330CD
:100B90000C00E8A20B0064210B00AAAA0A00703D19
:100BA0000A009DD80900427B090092240900DCD389
:100BB0000800888808001042080000000800F0C102
:100BC00007008787070075500700711C07003EEB80
:100BD0000600A1BC06006990060066660600703E2D
:100BE00006006118060017F4050074D105005BB01B
:100BF0000500B29005006272050055550500783970
:100C00000500B81E0500050505004EEC040087D45C
:100C10000400A1BD040090A7040049920400C17D16
:100C20000400EE690400C7560400444404005C322A
:100C300004000821040041100400000004003FF0FB
:100C40000300F8E0030026D20300C3C30300CCB5C1
:100C500003003AA803000A9B0300388E0300C081FA
:100C600003009F750300D0690300505E03001D530D
:100C7000030034480300913D030033330300162979
:100C80000300381F030097150300300C0300030313
:100C900003000BFA020049F10200BAE802005CE02E
:100CA00002002DD802002DD0020059C80200B0C0A9
:100CB000020031B90200DAB10200AAAA0200A0A320
:100CC0000200BC9C0200FA9502005C8F0200DF88E3
:100CD000020082820200457C020027760200277013
:100CE0000200436A02007C640200D05E02003F59A9
:100CF0000200C8530200FFFDFCFAF8F6F4F2F0EE31
:100D0000ECEAE9E7E5E3E1E0DEDCDAD9D7D5D4D2F5
:100D1000D0CFCDCBCAC8C7C5C3C2C0BFBDBCBAB98E
:100D2000B7B6B4B3B2B0AFADACAAA9A8A6A5A4A2F9
:100D3000A1A09E9D9C9A99989795949392908F8E3E
:100D40008D8B8A8988878684838281807F7E7D7B64
:100D50007A797877767574737271706F6E6D6C6B6B
:100D60006A696867666564636261605F5E5D5C5B5B
:100D70005A5958585756555453525150504F4E4D3A
:100D80004C4B4A4A49484746464544434242414003
:100D90003F3E3E3D3C3B3B3A3938383736353534BB
:100DA0003332323130302F2E2E2D2C2B2B2A292965
:100DB00028272726252524232322212120201F1E02
:100DC0001E1D1C1C1B1B1A19191818171616151591
:100DD00014131312121111100F0F0E0E0D0D0C0C17
:100DE0000B0A0A0909080807070606050504040393
:100DF000030202010000290A0050726F62653A3A4C
:100E00006D6F76655F7A28006465706C6F793A2043
:100E100000203A2050726F62653A3A7365745F64DD
:100E200065706C6F7965640A002020637572726565
:100E30006E745F706F736974696F6E3D002121205D
:100E400053544F502063616C6C656420626563612C
:100E5000757365206F6620424C546F75636820651A
:100E600072726F72202D20726573746172742077B4
:100E7000697468204D3939390A00424C546F7563E2
:100E800068205265636F76657279204661696C658A
:100E9000640A00626C746F7563682E6465706C6FB1
:100EA000795F70726F63282920656E640A00424C76
:100EB000546F75636820414C41524D206F7220542D
:100EC0005249474745522061667465722044455037
:100ED0004C4F592C207265636F766572696E670A94
:100EE00000424C546F756368204445504C4F592064
:100EF0007265717565737465640A00626C746F75F0
:100F000063682E73746F775F70726F632829206532
:100F10006E640A0021212053544F502063616C6C91
:100F200065642062656361757365206F6620424C5D
:100F3000546F756368206572726F72202D20726520
:100F400073746172742077697468204D3939390A75
:100F500000424C546F756368205265636F7665720A
:100F600079204661696C65640A00424C546F756370
:100F70006820414C41524D206F72205452494747DE
:100F800045522061667465722053544F572C20726D
:100F900065636F766572696E670A00424C546F75BF
:100FA00063682053544F572072657175657374657B
:100FB000640A00203A203C3C3C2050726F62653A43
:100FC0003A70726F62655F646F776E5F746F5F7A9D
:100FD0000A00202063757272656E745F706F7369AA
:100FE00074696F6E3D00203A203E3E3E2050726F85
:100FF00062653A3A70726F62655F646F776E5F74B4
:101000006F5F7A0A00202063757272656E745F707C
:101010006F736974696F6E3D0024F4D43050C38ED1
:1010200020C2A24017828B7011127A910D816CD967
:101030000AA861E108C7586607615143061E4B5D67
:1010400005C145A7041A411104093D9803713931BE
:10105000034036DB0265339102D4305402802E1DEA
:1010600002632CEE01752AC501B028A0011027816A
:10107000018F2564012B244B01E0223401AC211F98
:10108000018D200D01801FFC00841EED00971DDFE7
:1010900000B81CD200E61BC600201BBC00641AB2BC
:1010A00000B219A8000A19A0006A189900D1179176
:1010B0000040178B00B516840031167E00B31579F9
:1010C000003A157300C7146F0058146A00EE1366D7
:1010D000008813630025135E00C7125B006C125773
:1010E0000015125400C111510070114F0021114B15
:1010F00000D61049008D10470046104400021042EF
:1011000000C00F4000800F3E00420F3C00060F3B26
:1011100000CB0E3800930E37005C0E3500270E34DE
:1011200000F30D3200C10D3100900D3000600D2E26
:1011300000320D2D00050D2C00D90C2B00AE0C2912
:1011400000850C29005C0C2700350C27000E0C26AE
:1011500000E80B2400C40B2400A00B23007D0B230C
:10116000005A0B2100390B2100180B2000F80A1F30
:1011700000D90A1E00BB0A1E009D0A1D00800A1D20
:1011800000630A1C00470A1B002C0A1B00110A1AE4
:1011900000F7091A00DD091900C4091900AB091983
:1011A00000920917007B091800630917004C091603
:1011B0000036091600200916000A091500F5081561
:1011C00000E0081400CC081400B8081400A40814A7
:1011D00000900813007D0812006B081300580812D5
:1011E00000460812003408110023081100120811EB
:1011F0000001081100F0071000E0071000D00710F0
:1012000000C0071000B0070F00A107100091070EE3
:101210000083070F0074070F0065070E0057070EC5
:101220000049070E003B070D002E070E0020070D9A
:101230000013070D0006070D00F9060C00ED060D62
:1012400000E0060C00D4060C00C8060C00BC060C1E
:1012500000B0060C00A4060B0099060C008D060BCE
:101260000082060B0077060B006C060B0061060A75
:101270000057060B004C060A0042060A0038060A10
:10128000002E060A0024060A001A060A00100609A3
:101290000007060A00FD050900F4050900EB050931
:1012A00000E2050900D9050900D0050900C70509B4
:1012B00000BE050900B5050800AD050800A5050933
:1012C000009C050800940508008C050800840508AA
:1012D000007C050800740508006C0507006505081A
:1012E000005D050700560508004E05070047050785
:1012F000004005080038050700310507002A0507EA
:1013000000230507001C050600160507000F05074A
:10131000000805060002050700FB040600F50407A7
:1013200000EE040600E8040600E2040700DB040601
:1013300000D5040600CF040600C9040600C3040655
:1013400000BD040600B7040600B1040500AC0406A5
:1013500000A6040600A00405009B040600950405F1
:1013600000900406008A0405008504050080040638
:10137000007A04050075040500700405006B04057F
:101380000066040500610405005C040500570405BF
:1013900000520405004D04050048040500430405FF
:1013A000003E0404003A040500350405003004043E
:1013B000002C04050027040400230405001E040477
:1013C000001A04040016040500110404000D0404AE
:1013D00000090405000404040000040400FC0304E4
:1013E00000F8030400F4030400F0030400EC030419
:1013F00000E8030400E4030400E0030400DC030449
:1014000000D8030400D4030400D0030400CC030478
:1014100000C8030300C503030024F404D9201BC43F
:101420000C5C0E9804C4095F0265077101F405F9AC
:1014300000FB04B30048048700C10369005803554A
:101440000003034500BE023A008402310053022A21
:10145000002902250004022000E4011C00C8011933
:1014600000AF0117009801140084011300710110EE
:10147000006101100051010E0043010D0036010B07
:10148000002B010B0020010B00150109000C0109C4
:101490000003010800FB000800F3000800EB000750
:1014A00000E4000600DE000600D8000600D20006B8
:1014B00000CC000500C7000500C2000500BD000407
:1014C00000B9000400B5000400B1000400AD000440
:1014D00000A9000400A5000300A20003009F00046F
:1014E000009B000300980003009500020093000396
:1014F00000900003008D0002008B000300880002B2
:10150000008600020084000300810002007F0002C8
:10151000007D0002007B00020079000200770001DC
:1015200000760002007400020072000100710002E7
:10153000006F0002006D0001006C0002006A0001F3
:1015400000690002006700010066000100650001FB
:1015500000640002006200010061000100600001FF
:10156000005F0002005D0001005C0001005B000103
:10157000005A000100590001005800010057000105
:101580000056000100550001005400010053000006
:101590000053000100520001005100010050000101
:1015A000004F0001004E0000004E0001004D000100
:1015B000004C0001004B0000004B0001004A0001FC
:1015C00000490001004800000048000100470001F8
:1015D00000460000004600010045000000450001F3
:1015E00000440001004300000043000100420000ED
:1015F00000420001004100000041000100400001E4
:10160000003F0000003F0001003E0000003E0001DE
:10161000003D0000003D0001003C0000003C0000D7
:10162000003C0001003B0000003B0001003A0000CC
:10163000003A0001003900000039000100380000C4
:1016400000380000003800010037000000370001BA
:1016500000360000003600000036000100350000B2
:1016600000350000003500010034000000340000A7
:10167000003400010033000000330000003300019B
:101680000032000000320000003200010031000092
:101690000031000000310001003000000030000087
:1016A00000300001002F0000002F0000002F00007C
:1016B000002F0001002E0000002E0000002E00016F
:1016C000002D0000002D0000002D0000002D000165
:1016D000002C0000002C0000002C0000002C000159
:1016E000002B0000002B0000002B0000002B00014D
:1016F000002A0000002A0000002A0000002A000141
:101700000029000000290000002900000029000035
:101710000029000100280000002800000028000027
:10172000002800000028000100270000002700001A
:10173000002700000027000000270001002600000D
:101740000026000000260000002600000026000100
:1017500000250000002500000025000000250000F5
:1017600000250000002500010024000000240000E6
:1017700000240000002400000024000100230000D9
:1017800000230000002300000023000000230000CD
:1017900000230000002300010022000000220000BE
:1017A00000220000002200000022000000220001B0
:1017B00000210000002100000021000000210000A5
:1017C0000021000000210000002100010020000095
:1017D0000020000000200000002000000020000089
:1017E000002000000020000000200001001F000079
:1017F000001F0000001F0000001F0000001F00006D
:10180000001F0000001F0001001E0000001E00005D
:10181000001E0000001E000000232C0000B8220063
:1018200000561800003A0F0000B8080000B104008C
:1018300000710200003E01000020436F756E7420AD
:10184000583A0000626564002C2073797374656DEA
:101850002073746F707065642120486561746572CF
:101860005F49443A200048656174696E67204661AB
:10187000696C65640048656174696E6720666169BA
:101880006C65640070012C0190012701B0012201F8
:10189000C0011D01F00118011002130130020E01F8
:1018A0006002090190020401C002FF000003FA0077
:1018B0004003F5008003F000D003EB002004E600B5
:1018C0007004E100E004DC004005D700C005D20050
:1018D0004006CD00D006C8008007C3003008BE0017
:1018E000F008B900C009B400B00AAF00B00BAA00FC
:1018F000D00CA500000EA000500F9B00C010960059
:101900005012910000148C00C0158700B01782009F
:10191000B0197D00D01B7800001E730040206E00BF
:1019200090226900F024640040275F0090295A004B
:10193000E02B5500102E500020304B001032460096
:10194000E033410090353C001037370070383200EA
:10195000A0392D00B03A2800A03B2300603C1E00B7
:10196000103D1900903D1400103E0F00703E0A001B
:10197000C03E0500003F0000403FFBFF803FF6FFF8
:10198000C03FF1FF544845524D414C2052554E4105
:1019900057415900546865726D616C2052756E61D3
:1019A000776179004572723A204D415854454D5047
:1019B000004D415854454D502074726967676572F7
:1019C0006564004572723A204D494E54454D5000B1
:1019D0004D494E54454D5020747269676765726574
:1019E00064004D383420582059205A204500202FBB
:1019F000002042403A0020403A0020573A00205749
:101A00003A007C3C3E5E2B3D3F2F5B5D3B2C2A2207
:101A10005C0043616E6E6F74206F70656E2073752D
:101A200062646972200053442063617264206F6BAA
:101A30000A006F70656E526F6F74206661696C6525
:101A4000640A00766F6C756D652E696E6974206628
:101A500061696C65640A00534420696E697420668C
:101A600061696C0A0046696C652073656C65637416
:101A700065640A002053697A653A200046696C65FE
:101A8000206F70656E65643A2000454E44205355C2
:101A900042524F5554494E450A002220706F730040
:101AA0002220706172656E743A2200535542524F83
:101AB0005554494E452043414C4C20746172676532
:101AC000743A2200747279696E6720746F206361C2
:101AD0006C6C207375622D67636F64652066696C3A
:101AE0006573207769746820746F6F206D616E79FB
:101AF000206C6576656C732E204D4158206C6576A0
:101B0000656C2069733A310A0057726974696E67AF
:101B100020746F2066696C653A20002E0A006F7091
:101B2000656E206661696C65642C2046696C653A57
:101B300020004C4556454C494E4700434F4D4D55AE
:101B40004E49434154494F4E0044525952554E005C
:101B50004552524F525300494E464F004543484F5D
:101B6000004572726F722077726974696E672074B3
:101B70006F20454550524F4D210A00363726032B22
:101B80003C3D382A2E303E1224221E021A1C180810
:101B9000440A2C430809072C070001627573793A3F
:101BA0002070617573656420666F7220696E707550
:101BB000740A00627573793A2070617573656420E8
:101BC000666F7220757365720A00627573793A20C8
:101BD00070726F63657373696E670A004A3135000E
:101BE0005072696E7465722073746F7070656420D2
:101BF00064756520746F206572726F72732E204653
:101C0000697820746865206572726F7220616E64F5
:101C100020757365204D39393920746F20726573D2
:101C2000746172742E202854656D706572617475CC
:101C300072652069732072657365742E2053657414
:101C400020697420616674657220726573746172B4
:101C500074696E67290A004E6F20436865636B7371
:101C6000756D2077697468206C696E65206E756D7E
:101C70006265722C204C617374204C696E653A2049
:101C8000004E6F20436865636B73756D20776974D0
:101C900068206C696E65206E756D6265722C204CD3
:101CA000617374204C696E653A2000636865636BEC
:101CB00073756D206D69736D617463682C204C6160
:101CC0007374204C696E653A20004C696E65204E35
:101CD000756D626572206973206E6F74204C61733C
:101CE00074204C696E65204E756D6265722B312CC7
:101CF000204C617374204C696E653A20004D31317F
:101D0000300053442072656164206572726F720AFC
:101D1000002121204B494C4C206361757365642080
:101D2000627920746F6F206D75636820696E6163DE
:101D3000746976652074696D65202D2063757272F3
:101D4000656E7420636F6D6D616E643A2000507231
:101D5000696E7465722073746F7070656420647549
:101D60006520746F206572726F72732E20466978D9
:101D700020746865206572726F7220616E642075D0
:101D80007365204D39393920746F20726573746121
:101D900072742E202854656D706572617475726559
:101DA0002069732072657365742E205365742069F1
:101DB00074206166746572207265737461727469EF
:101DC0006E67290A006563686F3A004572726F7228
:101DD0003A00205800202864697361626C656429A8
:101DE0000A0020280041424C2041646A7573746DDA
:101DF000656E74205A005A20466164653A200020BE
:101E000028656E61626C6564290A0041626F7665BF
:101E10000053616D65205A2061730042656C6F77D5
:101E2000004175746F20426564204C6576656C696D
:101E30006E673A2042494C494E45415200204E6F50
:101E40007A7A6C65290A00202620002D43656E747D
:101E50006572002D46726F6E74002D4261636B00D7
:101E60002028416C69676E6564205769746800209A
:101E7000284D6964646C650020284C6566740020F8
:101E80002852696768740050726F6265204F6666F9
:101E900073657420580050726F62653A20424C544A
:101EA0004F5543480A004D616368696E6520547957
:101EB00070653A2043617274657369616E0A005DF2
:101EC0000A004578747261706F6C617465205B0004
:101ED00042696C696E656172204C6576656C696EED
:101EE0006720477269643A0A00203A202E2E2E4E4F
:101EF0006F77204F4E0A00202063757272656E74F2
:101F00005F706F736974696F6E3D00203A204C6595
:101F100076656C696E67204F46460A00202063751F
:101F20007272656E745F706F736974696F6E3D0075
:101F3000203A202E2E2E4E6F77204F46460A002044
:101F40002063757272656E745F706F736974696F08
:101F50006E3D00203A204C6576656C696E67204FB7
:101F60004E0A00202063757272656E745F706F7325
:101F70006974696F6E3D0072657365745F62656454
:101F80005F6C6576656C0A00424C546F756368201F
:101F9000436F6D6D616E64203A00424C546F7563FF
:101FA0006820536574204D6F6465202D2000636F99
:101FB0006E666967206D6F6465202D204F440A00AE
:101FC0006C6173745F7772697474656E5F6D6F6452
:101FD00065202D200053656E64204D31303820740B
:101FE0006F20726573756D650A00496E7365727452
:101FF0002066696C616D656E7420616E6420736526
:102000006E64204D3130380A0053656E64204D31C6
:10201000303820746F2068656174206E6F7A7A6C36
:10202000650A00486F74656E6420746F6F20636F7B
:102030006C640A00496E736572742066696C616D28
:10204000656E7420616E642073656E64204D31305E
:10205000380A0057616974696E6720666F7220687C
:1020600065617475702E0A003F5370656369666917
:10207000656420582C5920636F6F7264696E6174B7
:1020800065206F7574206F6620626F756E64732EA5
:102090000A003F28522965706561742076616C756D
:1020A00065206E6F7420706C61757369626C653B3E
:1020B000206D757374206265206174206C65617396
:1020C0007420312E0A003F28522965706561742002
:1020D0006D757374206265207370656369666965E8
:1020E00064207768656E206E6F74207573696E6703
:1020F00020616E204C43442E0A003F537065636993
:1021000066696564206E6F7A7A6C652074656D709F
:1021100065726174757265206E6F7420706C617584
:102120007369626C652E0A003F5370656369666966
:1021300065642066696C616D656E742073697A658B
:10214000206E6F7420706C61757369626C652E0A05
:10215000003F537065636966696564207072696DDC
:1021600065206C656E677468206E6F7420706C619A
:10217000757369626C652E0A003F5072696D652047
:102180006C656E677468206D75737420626520736A
:102190007065636966696564207768656E206E6F37
:1021A00074207573696E6720616E204C43442E0A5B
:1021B000003F537065636966696564206E6F7A7A63
:1021C0006C652073697A65206E6F7420706C617520
:1021D0007369626C652E0A003F496E76616C6964B2
:1021E0002052657472616374696F6E2F556E7265EB
:1021F0007472616374696F6E20726174696F2E20EE
:102200004D7573742062652077697468696E203536
:102210006D6D2E0A0020556E72657472616374696B
:102220006F6E20616D6F756E74206175746F6D6176
:10223000746963616C6C792073657420746F20001D
:102240003F556E72657472616374696F6E206C6560
:102250006E677468206D7573742062652073706595
:102260006369666965642E0A003F53706563696639
:1022700069656420556E72657472616374696F6E0E
:10228000206C656E677468206E6F7420706C617569
:102290007369626C652E0A003F52657472616374E3
:1022A000696F6E206C656E677468206D757374203D
:1022B0006265207370656369666965642E0A003F14
:1022C0005370656369666965642052657472616301
:1022D00074696F6E206C656E677468206E6F742011
:1022E000706C61757369626C652E0A003F5370658E
:1022F000636966696564206C6179657220686569E7
:10230000676874206E6F7420706C61757369626C9D
:10231000652E0A0043292E0A003F537065636966E3
:10232000696564206265642074656D7065726174AE
:10233000757265206E6F7420706C61757369626C64
:1023400065202834302D0047323620737461727452
:10235000696E672E2E2E0A004F46460A00466164BB
:1023600065204865696768742000426564204C6593
:1023700076656C696E6720004661696C65642074DF
:102380006F20656E61626C6520426564204C6576E5
:10239000656C696E670A00496E76616C6964206DD0
:1023A0006573682E0A003C3C3C204732390A002005
:1023B000636F72726563746564205A3A00473239FC
:1023C00020756E636F72726563746564205A3A009B
:1023D000203A203E2070726F62696E6720636F6DD5
:1023E000706C6574650A00202063757272656E7486
:1023F0005F706F736974696F6E3D002E0A002F0065
:1024000050726F62696E67206D65736820706F69C6
:102410006E742000202844525952554E29004732EC
:1024200039204175746F20426564204C6576656C77
:10243000696E67003F20284C2C522C462C422920E4
:102440006F7574206F6620626F756E64732E0A005C
:102450003F2856296572626F7365206C6576656CDE
:1024600020696D706C61757369626C652028302D10
:1024700034292E0A00426164205A2076616C756509
:102480000A004E6F2062696C696E65617220677226
:1024900069640A003E204175746F2D6C6576656C29
:1024A000206E6F74206E65656465642C20736B69A3
:1024B000700A3C3C3C204732390A005374616E6418
:1024C00061726420446576696174696F6E3A2000B8
:1024D0002052616E67653A2000204D61783A2000F5
:1024E000204D696E3A20004D65616E3A20004669C4
:1024F0006E6973686564210A002072616E67653ACF
:102500002000206D61783A2000206D696E3A20002D
:10251000207369676D613A2000206D65616E3A2015
:10252000003A207A3A2000206F662000476F696EDB
:102530006720746F3A20580043570A00206469727C
:102540003A0020616E676C653A00537461727420C2
:102550007261646975733A00506F736974696F6E64
:10256000696E67207468652070726F62652E2E2E0A
:102570000A003F4E756D626572206F66206C65675C
:102580007320696E206D6F76656D656E74206E6F59
:102590007420706C61757369626C652028302D3110
:1025A00035292E0A003F2028582C5929206F757490
:1025B000206F6620626F756E64732E0A003F536150
:1025C0006D706C652073697A65206E6F7420706C15
:1025D00061757369626C652028342D3530292E0AA7
:1025E000004D3438205A2D50726F6265205265704C
:1025F0006561746162696C69747920546573740AE9
:10260000003F2856296572626F7365206C65766598
:102610006C20696D706C61757369626C652028301F
:102620002D34292E0A003F4A206F7574206F6620D2
:1026300072616E67652028302E303120746F203033
:102640002E33290A00486F74656E6420746F6F2002
:10265000636F6C640A0020496E76616C6964206562
:102660007874727564657220003C3C3C20473238B7
:102670000A005261697365205A20286265666F728C
:102680006520686F6D696E672920746F20003E2099
:10269000686F6D696E67206E6F74206E6565646526
:1026A000642C20736B69700A3C3C3C204732380A2A
:1026B000003E3E3E204732380A00203A203E3E3E51
:1026C000204732390A00202063757272656E745F8C
:1026D000706F736974696F6E3D00205A3A20002054
:1026E000593A200042656420583A20004D657368CD
:1026F00020706F696E742063616E6E6F7420626506
:10270000207265736F6C7665640A00456E6420669E
:10271000696C65206C6973740A00426567696E2094
:1027200066696C65206C6973740A00286E6F206698
:10273000696C65290043757272656E742066696CF8
:10274000653A20005344207072696E74696E672088
:102750006279746520004E6F742053442070726952
:102760006E74696E670A002E0A0044656C657469B0
:102770006F6E206661696C65642C2046696C653AF1
:10278000200046696C652064656C657465643A0078
:102790005072696E742074696D653A2000496E76D6
:1027A000616C69642050696E204D6F64650A000A8F
:1027B00053746174733A2046696C616D656E742060
:1027C000757365643A20002C204C6F6E67657374D6
:1027D000206A6F623A2000546F74616C2074696DD6
:1027E000653A200053746174733A20002C204661CE
:1027F000696C65643A20002C2046696E69736865CF
:10280000643A20005072696E74733A200053746108
:1028100074733A20004A3036004A3039006F6B003A
:102820006F6666005C1B571B501B491B3B1B321B12
:1028300044454255473A004D313133205300434817
:10284000414D4245525F54454D50455241545552B9
:1028500045004D4F54494F4E5F4D4F444553005432
:102860004845524D414C5F50524F54454354494F97
:102870004E004155544F5245504F52545F53445FA0
:102880005354415455530050524F4D50545F53557B
:1028900050504F525400454D455247454E43595FA5
:1028A00050415253455200434153455F4C494748BC
:1028B000545F4252494748544E45535300544F4782
:1028C000474C455F4C494748545300534F46545773
:1028D0004152455F504F574552004255494C445F65
:1028E00050455243454E54004C4556454C494E4781
:1028F0005F44415441005A5F50524F424500415598
:10290000544F4C4556454C005052494E545F4A4F27
:10291000420050524F4752455353004155544F5275
:1029200045504F52545F54454D5000564F4C554DF5
:10293000455452494300454550524F4D0042494E7F
:102940004152595F46494C455F5452414E534645AA
:10295000520053455249414C5F584F4E5F584F46C5
:1029600046004649524D574152455F4E414D453A0A
:102970004D61726C696E20322E302E352E34202837
:102980006B6E757477757273742C204769746875F3
:102990006229204B4E555457555253545F41493389
:1029A0004D5F56455253494F4E3A312E312E362DFA
:1029B0006265746120444953545249425554494F09
:1029C0004E5F444154453A323032302D30392D304B
:1029D0003720534F555243455F434F44455F55524F
:1029E0004C3A68747470733A2F2F67697468756213
:1029F0002E636F6D2F6B6E757477757273742F4DB8
:102A000061726C696E2D322D302D782D416E796397
:102A1000756269632D69332D4D4547412D53205013
:102A2000524F544F434F4C5F56455253494F4E3AC5
:102A3000312E30204D414348494E455F5459504551
:102A40003A4B6E75747775727374277320416E7983
:102A50006375626963206933204D454741204558BD
:102A60005452554445525F434F554E543A312055C8
:102A70005549443A62363135333135322D38366670
:102A8000622D346364382D626461372D39316336C9
:102A900061303463343637640A002F2F200020520F
:102AA00000416363656C65726174696F6E3A2050B2
:102AB000004F4646004F4E0020204D61783A2000DE
:102AC000200020204D696E3A2000536F6674206507
:102AD0006E6473746F70733A200046523A00204659
:102AE0006C6F773A200050726F7465637465642070
:102AF00050696E0A003A200020536572766F2000FC
:102B0000206F7574206F662072616E67650A0053CE
:102B10006572766F200020643A0020693A002070C8
:102B20003A00496E76616C696420657874727564E8
:102B300065720A0020643A0020693A0020703A0069
:102B400064697300656E0043290A0061626C656404
:102B500020286D696E2074656D702000436F6C6471
:102B60002065787472756465732061726520004D0C
:102B700065736820706F696E742063616E6E6F7428
:102B8000206265207265736F6C7665640A004D344F
:102B9000323120696E636F72726563742070617286
:102BA000616D657465722075736167650A00546FA5
:102BB0006F206661722066726F6D20726566657245
:102BC000656E636520706F696E740A0045455052EA
:102BD0004F4D204F4B0A00205A323A004475616C29
:102BE00020456E6473746F702041646A7573746DF0
:102BF000656E7420286D6D293A20002E0A00202869
:102C0000302D313029002076616C7565206F757428
:102C1000206F662072616E676500416476616E6345
:102C200065204B3D00446F6E65207072696E74695B
:102C30006E672066696C650A004D3737004D333189
:102C4000003C3C3C205428290A00203A20414654AC
:102C500045520A00202063757272656E745F706F52
:102C6000736974696F6E3D00203A204245464F52A9
:102C7000450A00202063757272656E745F706F7311
:102C80006974696F6E3D00290A003E3E3E2054285B
:102C9000001000C90210012C01400122017001182E
:102CA00001B0010E01F00104015002FA00B002F07F
:102CB000003003E600D003DC009004D2007005C8A9
:102CC00000A006BE000008B400B009AA00D00BA006
:102CD00000600E960060118C0000158200201978AB
:102CE00000C01D6E00A0226400B0275A00902C5036
:102CF0000000314600E0343C0010383200903A28A1
:102D000000603C1E00A03D1400803E0A00203F00F1
:102D100000667265736800646F696E67002066699B
:102D20006C653A20004E6F772000000021002400DF
:102D300027002A002D0030003300010100000401AB
:102D400007010A0100002200250028002B002E00A8
:102D50003100340002010000050108010B010000F0
:102D600020002300260029002C002F003200000143
:102D7000000003010601090105050505070508080E
:102D80000808020202020A0A0808040404040101F5
:102D9000010101010101030303030303030304070A
:102DA00007070C0C0C0C0C0C0C0C020202020606A1
:102DB0000606060606060B0B0B0B0B0B0B0B010294
:102DC000102020080810204010204080020102013D
:102DD00008040201010204081020408080402010F5
:102DE000080402018004020180402010080402014E
:102DF00008040201010204081020408001020408B6
:102E00001020408000000A0B02090C0D0E08070379
:102E100004010000000000000000000000000000AD
:102E200000000000000000000000000000000000A2
:102E3000121110000000000000000000000000005F
:102E400000000000000000000000024A3135004A86
:102E50003132004A3137002020506C616E6E65724D
:102E600042756666657242797465733A2000204641
:102E7000726565204D656D6F72793A2000436F6D04
:102E800070696C65643A20536570202038203230B8
:102E900032300A00204C617374205570646174658F
:102EA000643A20323032302D30392D3037207C20BA
:102EB000417574686F723A20286B6E7574777572FD
:102EC0007374290A004D61726C696E2D4149334D4E
:102ED00000322E302E352E340A004D61726C696E30
:102EE0000020536F66747761726520526573657454
:102EF0000A00205761746368646F672052657365C8
:102F0000740A002042726F776E206F7574205265CC
:102F10007365740A002045787465726E616C205286
:102F2000657365740A00506F77657255700A007397
:102F3000746172740A004D3234004D3233202573AF
:102F4000006175746F25632E670047323858590049
:102F50004D31303031006572726F72207772697452
:102F6000696E6720746F2066696C650A00446F6E35
:102F70006520736176696E672066696C652E0A004C
:102F80004D32390020503A00205A3A0020593A0078
:102F900020583A00656E6473746F707320686974AA
:102FA0003A2000203A203C3C3C2072756E5F7A5FEC
:102FB00070726F62650A00202063757272656E74AC
:102FC0005F706F736974696F6E3D00203A203C3CFE
:102FD0003C2072756E5F7A5F70726F62650A0020C6
:102FE0002063757272656E745F706F736974696F58
:102FF0006E3D00534C4F572050726F6265206661E2
:10300000696C210A00203A203E3E3E2050726F62D9
:10301000653A3A72756E5F7A5F70726F62650A0028
:10302000202063757272656E745F706F7369746966
:103030006F6E3D003C3C3C2050726F62653A3A70C6
:10304000726F62655F61745F706F696E740A0050C1
:10305000726F62696E67204661696C65640A002060
:103060005A3A200020593A200042656420583A20FC
:1030700000506F736974696F6E204E6F74205265D3
:1030800061636861626C650A00203A200A002020B2
:1030900063757272656E745F706F736974696F6E59
:1030A0003D005F72656C6174697665290A002C20A9
:1030B000002C20002C20002C20003E3E3E20507290
:1030C0006F62653A3A70726F62655F61745F706FCC
:1030D000696E742800496E76616C69642065787445
:1030E00072756465720A00220A00556E6B6E6F7706
:1030F0006E20636F6D6D616E643A20220020450082
:10310000205A00205900204D393220580020453ADD
:1031100000205A3A0020593A00583A004D32370000
:103120004D3834004739310A473120452D3120468A
:10313000313830300A473930004A3136004D3132AB
:1031400035204C32004A3138004A3134004A3030A0
:10315000004A3031004A31300043616E6E6F742096
:10316000656E746572207375626469723A20004DF1
:10317000363030005370656369616C204D656E7543
:103180003A20456E61626C652046696C616D656EC2
:10319000742053656E736F720A00537065636961C2
:1031A0006C204D656E753A2044697361626C6520D0
:1031B00046696C616D656E742053656E736F720A3B
:1031C000005370656369616C204D656E753A2046E9
:1031D000696C2E204368616E676520526573756D5A
:1031E000650A005370656369616C204D656E753AC0
:1031F0002046696C2E204368616E676520506175BA
:1032000073650A004732380A4732390A4D35303083
:103210000A4739300A4731205A333020463430309B
:10322000300A47312058302046343030300A473990
:10323000310A4D3834005370656369616C204D6507
:103240006E753A20424C546F756368204C65766504
:103250006C696E670A004D313430205336300053AC
:1032600070656369616C204D656E753A20507265BA
:103270006865617420556C747261626173650A00DF
:103280004D353032005370656369616C204D656E59
:10329000753A204C6F61642046572044656661751D
:1032A0006C74730A004D353030005370656369618A
:1032B0006C204D656E753A2053617665204545500A
:1032C000524F4D0A004D33303320452D31205336B7
:1032D000302043362055310A4D353030005370656B
:1032E0006369616C204D656E753A205049442054E5
:1032F000756E6520556C747261626173650A004772
:1033000032380A4739300A4731205A32300A4731B9
:10331000205831313020593131302046343030306E
:103320000A4731205A350A4D313036205331373271
:103330000A473420503530300A4D33303320453081
:103340002053323135204331352055310A4734205E
:10335000503530300A4D3130370A4732380A47315C
:10336000205A31300A4D38340A4D35303000537010
:10337000656369616C204D656E753A205049442043
:1033800054756E6520486F74656E640A004D313067
:1033900038004D313038004D3234004D3234003C6D
:1033A0005370656369616C204D656E753E003C53DA
:1033B0005045434D3E003A20003A202F002F2E2E3C
:1033C0000A002F2E2E002E2E003C5370656369617B
:1033D0006C204D656E753E0A003C537065636961F3
:1033E0006C204D656E753E003C535045434D3E008C
:1033F0003C457869743E003C455849543E003C4C7D
:103400006F61642046572044656661756C74733E35
:10341000003C4C444445463E003C536176652045A3
:103420004550524F4D3E003C53415645453E003CB1
:10343000456E61626C652046696C2E2053656E7323
:103440006F723E003C454E53454E3E003C4469730E
:1034500061626C652046696C2E2053656E736F72D5
:103460003E003C44495353454E3E003C50494420A5
:1034700054756E6520556C747261626173653E00AF
:103480003C50494455423E003C5049442054756EDE
:103490006520486F74656E643E003C504944484561
:1034A0003E003C424C546F756368204C6576656CF9
:1034B000696E673E003C424C5443483E003C4669BE
:1034C0006C2E204368616E676520526573756D656B
:1034D0003E003C524553554D3E003C46696C2E2003
:1034E0004368616E67652050617573653E003C50AE
:1034F000415553453E003C507265686561742055E6
:103500006C747261626173653E003C50524548457F
:103510003E003C457869743E003C455849543E00A5
:103520003C456E64204D657368204C6576656C691A
:103530006E673E003C4241434B3E003C4E65787412
:10354000204D65736820506F696E743E003C4E4597
:1035500058544D3E003C5A20446F776E20302E3038
:10356000313E003C5A444E3030313E003C5A2055EA
:103570007020302E30313E003C5A55503030313EB4
:10358000003C5A20446F776E20302E30323E003C93
:103590005A444E3030323E003C5A20557020302E76
:1035A00030323E003C5A55503030323E003C5A20BA
:1035B000446F776E20302E313E003C5A444E3031FD
:1035C0003E003C5A20557020302E313E003C5A556A
:1035D0005030313E00312E312E362D62657461003F
:1035E0004B572D004A333320004A313200473120F7
:1035F0005A3130004F4B004731205A3130004739A3
:1036000030004731204525694635303000473120AC
:10361000452D302E314625690047312045302E3169
:10362000462569004731205A2569462569004731FA
:10363000205A2D302E31462569004731205A302E30
:1036400031462569004731205925694625690047DB
:103650003120592D302E314625690047312059300F
:103660002E314625690047312058256946256900D5
:10367000473120582D302E314625690047312058DA
:10368000302E31462569004739310047323800472E
:103690003238205A004732382059004732382058F3
:1036A000004132305620004731205A3130004A3034
:1036B00034004A3231004A3230004A3136004A3052
:1036C0003400454E4400464E20003939393A3939E4
:1036D00039004D0048004137562000413656202D14
:1036E0002D2D004A30320041365620005A3A200033
:1036F000593A2000583A20004135560041345620AE
:1037000000413356200041325620004131562000FE
:103710004130562000455252200020746F6F206CBB
:103720006F6E6720657874727573696F6E20707242
:103730006576656E7465640A0020636F6C6420654D
:103740007874727573696F6E2070726576656E74C9
:1037500065640A00486F6D65202573257325732005
:103760004669727374004A3233004D32350047396E
:1037700030002E0A006F70656E206661696C6564AA
:103780002C2046696C653A20004A3131005072693C
:103790006E7465722068616C7465642E206B696C50
:1037A0006C28292063616C6C6564210A0000DEF8D6
:1037B000190111241FBECFEFD1E2DEBFCDBF00E063
:1037C0000CBF14E0A0E0B2E0EEEEFDE102E00BBFC2
:1037D00002C007900D92A63BB107D9F72CE1A6EBEA
:1037E000B4E001C01D92AD36B207E1F71BE1C8EDB0
:1037F000DBE100E006C021970109802FFE010F9454
:10380000550EC73DD10780E00807A9F70E944CFA82
:103810000D94E50E0C940000CF93DF93C3E4D8E140
:1038200020E030E048E452E46091CE167091CF166B
:103830008091D0169091D1160F94540D87FF17C028
:1038400080E0FE01C49120910B0190E0B0E0A0E087
:1038500004C0B695A79597958795CA95D2F780FD30
:103860000EC0207220930901DF91CF910895FE01CF
:10387000949181E001C0880F9A95EAF7E2CF2095F4
:10388000F0CFEF92FF920F931F93E0927505F092A5
:10389000760500937705109378056093790570930A
:1038A0007A0580937B059FEFFF27621B730B840BC8
:1038B00030F4809570956195790B890B99279093D9
:1038C0001407A6E06A9F00920807512DEE277A9F01
:1038D000500DE11D8A9FE00D50930907E0930A0700
:1038E000AFE06A9F00920C07512DEE277A9F500D92
:1038F000E11D8A9FE00D50930D07E0930E07AAE0AB
:103900006A9F00921007512DEE277A9F500DE11DFE
:103910008A9FE00D50931107E09312071F910F91BA
:10392000FF90EF9008959F92AF92BF92CF92DF9257
:10393000EF92FF920F931F93CF93DF9300D01F92CC
:103940001F92CDB7DEB7E6EFFCE00027BB27462F7E
:10395000572FA82FAA2341F4A52F542FB85FAA23CD
:1039600019F4A52F5527B85FA03138F45295A295C8
:10397000452F4F70507FA42BBC5FA03428F4550F07
:10398000AA1F550FAA1FBE5FA03818F4550FAA1F13
:10399000B395550FAA1FEA0FF01F449151E0AA27D3
:1039A000B85081F1C8F0B0FF02C0440F551FB1FFFD
:1039B00004C0440F551F440F551FB2FF06C0529557
:1039C0004295142F1F70407F512BB3FF1BC0A52FB2
:1039D000542F44270C94021DB195B0FF02C0559599
:1039E0004795B1FF04C05595479555954795B2FF4A
:1039F00005C05295407F4295452B5F70B3FF02C0D2
:103A0000452F5527DD24CC24BB24B2E0649FD01879
:103A1000C108B00AB00B749FC018B108B00B849FE6
:103A2000B018B109659FC018B108B00B759FB018E8
:103A3000B109859FB0196A9FB018B1097A9FB01972
:103A40004D9DA12C99243327992722275D9DA00CF9
:103A5000911C301F901F201FAD9D900C311D901F99
:103A6000201F4C9DA00C911C301F901F201F5C9D9F
:103A7000900C311D901F201FAC9D300D911D201FFB
:103A80004B9D900C311D901F201F5B9D300D911D93
:103A9000201FAB9D900D211D4B9F300D911D201FB0
:103AA0005B9F900D211DAB9F200DB1E0BB24CC246A
:103AB000DD24639FD018C108B00AB00B739FC018F3
:103AC000B108B00B839FB018B109699FC018B10845
:103AD000B00B799FB018B109899FB019629FB018D7
:103AE000B109729FB019D61AC70AB80A20F0B1E01E
:103AF0003B0F901F201F1124792F632F90E0822FFE
:103B00000F900F900F900F900F90DF91CF911F911A
:103B10000F91FF90EF90DF90CF90BF90AF909F906C
:103B200008958091AD179091AE17891B8F7019F48D
:103B300090E080E008959091AA17992351F0833086
:103B400030F48FEF890F19F08093AA17F1CF1092FC
:103B5000AA178091AE1722E6829FC00111248F5BC5
:103B6000924FFC01208120FDE3CF2091AE172F5F03
:103B70002F702093AB173091AE172091AC173213F2
:103B800004C02091AB172093AC170895CF93DF9317
:103B9000FC0126853785D901A05CBF4F8D919C9192
:103BA000119701968F739927E901CE5BDF4F48810A
:103BB000598148175907D9F34D915C91240F351F4E
:103BC000D9016C93A685B785A05CBF4F11969C93D5
:103BD0008E93C689D7892881378D81E090E0A0E057
:103BE000B0E004C0880F991FAA1FBB1F3A95D2F7F7
:103BF000822B888381E081A30488F589E02D808170
:103C00008064808381E090E0DF91CF910895FC0192
:103C100091A1992329F0A489B5898C9186FFF9CFC8
:103C200011A20895DC011C968D919C91FC01E05C31
:103C3000FF4F4081518132962081318142175307D5
:103C400081F020813181820F931FDC018C912081D2
:103C500031812F5F3F4F2F7333273183208390E0D3
:103C600008958FEF9FEF0895FC0184859585FC01F1
:103C7000E05CFF4F408151813296208131814217B3
:103C8000530741F020813181820F931FFC01808115
:103C900090E008958FEF9FEF0895FC01248535850E
:103CA000F901E05CFF4F808191812E5B3F4FF9016C
:103CB00020813181805C9F4F821B930B60E470E018
:103CC0000F94410E089590E080E00895CF93C82F9F
:103CD000CB010E94B5868EEA98E00E94B5868FE9F6
:103CE00098E0CC2311F084EA98E00E94B5868AE03F
:103CF000CF910C9464860F931F93CF93811113C0BF
:103D0000C42F8B010E9481878DE496E00E94B586C6
:103D1000C8010E94B586CC2331F08AE0CF911F9173
:103D20000F910C946486CF911F910F91089561E0DB
:103D3000FC0180810E9415E28FEF0C9452B0DF925B
:103D4000EF92FF920F931F93CF93DF938C01C62FB7
:103D5000D22FF32EE42ED52EFC0182810E945EB07C
:103D600060E0F80180810E9415E20E946FE48C2FD0
:103D700080640E9452B08D2D0E9452B08E2D0E9400
:103D800052B08F2D0E9452B08D2F0E9452B087E802
:103D9000C11101C085E90E9452B0CC3011F40E94DB
:103DA00057B0C0E00E9457B0F801838387FF04C07A
:103DB000CF3F11F0CF5FF6CFDF91CF911F910F91E1
:103DC000FF90EF90DF900895CF92DF92EF92FF92F5
:103DD0000F931F93CF93DF93EC0189018C81833084
:103DE00039F089E0440F551F661F771F8A95D1F778
:103DF0009A01AB0161E1CE010E949F1E882381F0F0
:103E000084E08983CE010E94971E10E0812FDF910C
:103E1000CF911F910F91FF90EF90DF90CF90089579
:103E20000E9428E46B017C012CE2C20E21E0D21E2C
:103E3000E11CF11C0E9457B08B838F3F61F40E94FC
:103E400028E46C197D098E099F0997FDF3CF81E164
:103E5000898310E01BC08E3FE9F48FEF8EBDF8011F
:103E6000D801A150BE4F0DB407FEFDCF9EB5919372
:103E70008EBDAE17BF07B9F70DB407FEFDCF8EB5E7
:103E80008C930E9457B00E9457B011E0CE010E945F
:103E9000971EBCCF8FE0DCCFCF92DF92EF92FF92E4
:103EA0000F931F93C12CD12C76018C0125EF3CE0A0
:103EB00041EF5CE06DEE7CE089EE9CE00E94F7DC77
:103EC0001F910F91FF90EF90DF90CF900895809118
:103ED000DB1B83FF03C084608093DB1B0895FC0120
:103EE00080818823F9F0853EE9F08E32D9F0809107
:103EF000C60C8E32B9F09385892F8A7099F4987127
:103F000021E0903109F020E08091DB1B20FB84F957
:103F10008093DB1B903141F08085873419F48185D3
:103F20008E3711F480E0089581E00895FC0120E0CF
:103F30003EE2DB014D91BD01403249F0283011F4E1
:103F400030833196DB0111974C91408331962F5F7E
:103F50002B3079F7108208950F931F93CF93DF933F
:103F6000EC0189018C81833039F089E0440F551FC1
:103F7000661F771F8A95D1F79A01AB0168E1CE01E0
:103F80000E949F1E81114AC08EEF8EBDF801C801AC
:103F90009E5F0DB407FEFDCF20812EBD0DB407FE40
:103FA000FDCF21812EBD3296E817F90791F70DB4A8
:103FB00007FEFDCF8FEF0E9452B08FEF0E9452B0EC
:103FC0000E9457B08B838F71853089F40E946FE413
:103FD000182F882301F120E030E0A9016DE0CE0127
:103FE0000E949F1E882351F086E1898305C083E1EA
:103FF0008983CE010E94971E10E004C00E9457B032
:104000008111F2CFCE010E94971E812FDF91CF91B7
:104010001F910F91089587E18983F4CF86E0E5CF62
:10402000CF938091B715C1E08823A1F04091AF15DF
:104030005091B0156091B1157091B2152FEA33E12E
:104040008091B8159091B9150E94AC1FC82F8111AD
:1040500004C0C0E08C2FCF9108954091B3155091CA
:10406000B4156091B5157091B615411551056105EE
:10407000710591F02FEA33E18091B8159091B9154F
:104080000E94AC1F882329F31092B3151092B41527
:104090001092B5151092B6151092B715DBCFCF92CE
:1040A000DF92EF92FF92CF936B017C01C42F80913E
:1040B000AF159091B015A091B115B091B2158C15B6
:1040C0009D05AE05BF0501F10E941020811108C0B9
:1040D000C0E08C2FCF91FF90EF90DF90CF900895AC
:1040E0002FEA33E1B701A6018091B8159091B91577
:1040F0000E94E41E882361F3C092AF15D092B015E0
:10410000E092B115F092B215CC2321F081E08093BA
:10411000B715DFCFC1E0DDCF4F925F926F927F92F4
:104120008F929F92AF92BF92CF92DF92EF92FF92C7
:104130000F931F93CF93DF93EC014230510561053C
:10414000710590F480E0DF91CF911F910F91FF9066
:10415000EF90DF90CF90BF90AF909F908F907F9027
:104160006F905F904F90089589859A85AB85BC8547
:104170000196A11DB11D84179507A607B70710F377
:104180008F898031C9F5852E962EA72EBB248B8969
:104190009C89AD89BE89880E991EAA1EBB1E280166
:1041A00039016A017B0141E0C501B4010E944F2041
:1041B000882341F29F89903181F5DD24EE24FF248C
:1041C000F601EE0FFF1FE155FC4E118300839A8923
:1041D000923008F4B8CF4D815E816F817885840E6E
:1041E000951EA61EB71E8092B3159092B415A0928C
:1041F000B515B092B615A7CF803209F0A3CF8B8941
:104200009C89AD89BE894A015B01E7E0B694A79419
:1042100097948794EA95D1F7BECFE894C7F8DD2448
:10422000EE24FF24F601EE0FFF1FEE0FFF1FE155F6
:10423000FC4E4082518262827382C9CFCF92DF925C
:10424000EF92FF920F931F93CF93DF93FC01818531
:104250009285A385B4850196A11DB11D841795078C
:10426000A607B70750F480E0DF91CF911F910F911F
:10427000FF90EF90DF90CF90089587898031A9F566
:10428000BB27A72F962F852FC388D488E588F6886B
:104290008C0D9D1DAE1DBF1DE9016A017B018F01C3
:1042A0004091AF155091B0156091B1157091B21554
:1042B00084179507A607B70749F5F8018789803164
:1042C00069F5B701A601552766277727440F551FC3
:1042D00041555C4EFA0180819181B0E0A0E0888375
:1042E0009983AA83BB8381E0BFCF803209F0BBCF23
:1042F000C388D488E588F688DB01CA01C7E0B69593
:10430000A79597958795CA95D1F7C2CF40E0BC0194
:10431000CD010E944F208111D0CFA5CFB701A601BA
:104320004F77552766277727440F551F440F551F92
:1043300041555C4EFA0180819181A281B381BF70A9
:10434000CECF4F925F926F927F92AF92BF92CF92F9
:10435000DF92EF92FF920F931F93CF93DF9300D0E2
:104360001F92CDB7DEB78C0149835A836B837C8360
:104370005901C12CD12C7601412C82E0582E612CA0
:10438000712C49815A816B817C819E012F5F3F4F47
:10439000C8010E941E21882319F1F8018585A30117
:1043A000920104C0220F331F441F551F8A95D2F774
:1043B000DA01C901C80ED91EEA1EFB1E49815A81C5
:1043C0006B817C8187898031F1F481E0483F5F4FC8
:1043D00061057105B0F2F501C082D182E282F382FB
:1043E0000F900F900F900F90DF91CF911F910F9131
:1043F000FF90EF90DF90CF90BF90AF907F906F9045
:104400005F904F90089581E0483F5F4F6F4F7F402E
:1044100008F4B7CFE0CF0F931F93CF93DF93FC0146
:104420002381222331F080E0DF91CF911F910F9102
:1044300008958B01EC01FB018789803139F582E019
:104440008B831D8A1E8A1F8A188E808D918DB0E005
:10445000A0E025E0880F991FAA1FBB1F2A95D1F75E
:10446000898B9A8BAB8BBC8B1A8F098F81E08983E8
:10447000188619861A861B861C821D821E821F8240
:10448000188A1C861D861E861F86CECF803259F65E
:1044900083E08B83428D538D648D758D4D8B5E8B48
:1044A0006F8B788F9E012F5E3F4FC8010E94A12124
:1044B0008111DACFB8CF8F929F92AF92BF92CF92F5
:1044C000DF92EF92FF920F931F93CF93DF93EC0154
:1044D0008B8181110EC080E0DF91CF911F910F91F0
:1044E000FF90EF90DF90CF90BF90AF909F908F9014
:1044F000089509891A892B893C890417150726070D
:10450000370748F34A015B01823031F48886998687
:10451000AA86BB8681E0E0CF81149104A104B10496
:1045200049F4188619861A861B861C821D821E82F3
:104530001F82F0CF088519852A853B85E98DFA8D84
:10454000858590E00996B901A8014150510961099A
:104550007109082E04C076956795579547950A947A
:10456000D2F775016401E1E0CE1AD108E108F10843
:1045700004C0F694E794D794C7948A95D2F7C416EA
:10458000D506E606F70620F0012B022B032B11F5CA
:104590008D899E89AF89B88D8C839D83AE83BF83BF
:1045A0008E010C5F1F4FC114D104E104F10409F422
:1045B000ADCF4C815D816E817F819801898D9A8D0F
:1045C0000E941E2191E0C91AD108E108F108811169
:1045D000EACF81CFC41AD50AE60AF70AE1CF40E054
:1045E00050E0BA010C945B223F924F925F926F921F
:1045F0007F928F929F92AF92BF92CF92DF92EF9273
:10460000FF920F931F93CF93DF93CDB7DEB72C9715
:104610000FB6F894DEBF0FBECDBF5C01DC0159962A
:104620008D909C90F40181859285A385B4859C0131
:10463000AD012F5F3F4F4F4F5F4F29873A874B8721
:104640005C87D50114964D905D906D907C90179786
:10465000411451046104710409F459C0BFEF4B1AAD
:104660005B0A6B0A7B0A312C730162011D821E8278
:104670001F821886F40181859285A385B4852D81DA
:104680003E814F815885281739074A075B0708F094
:1046900056C089859A85AB85BC858C159D05AE0570
:1046A000BF0550F482E0C82ED12CE12CF12C92E011
:1046B000492E512C612C712C9E012F5F3F4FB70169
:1046C000A601C4010E941E218823C9F189819A8113
:1046D000AB81BC81892B8A2B8B2B01F12601370101
:1046E0009FEF491A590A690A790A2D813E814F8143
:1046F00058852F5F3F4F4F4F5F4F2D833E834F8332
:1047000058873FEFC31AD30AE30AF30AB3CF4080B6
:1047100051806280738033243394A6CFC414D504AF
:10472000E604F70411F70FEF1FEF2FEF3FE0B7019B
:10473000A601C4010E948C20782E81111AC0712C10
:10474000872D2C960FB6F894DEBF0FBECDBFDF913C
:10475000CF911F910F91FF90EF90DF90CF90BF907E
:10476000AF909F908F907F906F905F904F903F9011
:104770000895F50144815581668177814115510580
:104780006105710539F097018601C4010E948C20F2
:104790008823A9F2D5011496CD92DD92ED92FC9278
:1047A0001797332051F0D701C6010196A11DB11D05
:1047B000F40180839183A283B383F501858996896F
:1047C000A789B08D892B8A2B8B2B09F0B9CFC58A8D
:1047D000D68AE78AF08E818180688183B1CF2F925B
:1047E0003F924F925F926F927F928F929F92AF9281
:1047F000BF92CF92DF92EF92FF920F931F93CF93CE
:10480000DF9300D01F92CDB7DEB79C838B834B0123
:104810007A01DC0113968C91811119C08FEF9FEF03
:104820000F900F900F900F90DF91CF911F910F91EC
:10483000FF90EF90DF90CF90BF90AF909F908F90C0
:104840007F906F905F904F903F902F900895EB81F5
:10485000FC81818180FFE2CF81899289A389B4891B
:104860004085518562857385841B950BA60BB70B1C
:10487000A70170E060E084179507A607B70708F462
:104880007C0167018B819C8104969A838983612CCA
:1048900032E0732EC114D10409F4B7C0AB81BC81DE
:1048A00018964D915D916D917C911B975A01B1E0E5
:1048B000BB22EB81FC81818D928D1A012B0129E0B5
:1048C00056944794379427942A95D1F72381223020
:1048D00091F5DC015A966D917D918D919C915D973A
:1048E000620D731D841D951D83010A191B09C016D5
:1048F000D10608F486010115B2E01B0771F420917E
:10490000AF153091B0154091B1155091B2156217A5
:1049100073078407950709F059C040E00E944F20B3
:10492000882309F47BCFB50161557C4EA801C401F1
:104930000F947B0E57C0FC01148111501221A11459
:10494000B10481F411110EC0452B462B472B79F58C
:10495000EB81FC8185899689A789B08D84839583B5
:10496000A683B783AB81BC815996ED91FC915A9790
:1049700014966D917D918D919C911797625071095C
:1049800081099109258504C0660F771F881F991F2B
:104990002A95D2F72685378540895189620F731F82
:1049A000841F951F610F711D811D911D9DCFAB81CE
:1049B000BC8114964D915D916D917C9117972981E1
:1049C0003A810E941E218111CDCF28CF9401AB01E5
:1049D000BC018091B8159091B9150E94E41E8823FE
:1049E00009F41CCF800E911EEB81FC81808591859E
:1049F000A285B385800F911FA11DB11D808791876E
:104A0000A287B387C01AD10A45CFC70109CFDF9269
:104A1000EF92FF920F931F93CF93DF93FC012381BB
:104A2000223008F470C000851185228533850F710E
:104A3000112722273327012B022B032B09F063C0F8
:104A40004115510511F0FA0110827A01EB018C0138
:104A50008DE0D82E40E250E0BE01C8010E94EF2355
:104A60008032910571F021E0892B09F420E0822F3A
:104A70008195DF91CF911F910F91FF90EF90DF9083
:104A800008952881222309F440C0253E11F02E32DA
:104A900031F4E114F104F1F2F7011082DBCFE114FB
:104AA000F10439F13B853F733F3019F54A8D5B8D39
:104AB000452BF9F42F713FEF320F3230D0F42150F3
:104AC000330BD29EC001D39E900D1124D701A80FA5
:104AD000B91FFE0120E0AD01253078F431813D930E
:104AE0002F5F32962D30C1F7288126FF02C0FA01D0
:104AF00015862B8523FDAECFBCCF2B3010F434812F
:104B0000EECF3681ECCF8FEFB4CF80E0B2CFCF9332
:104B1000DF93EC01462F41706C857D858E859F85E6
:104B20000E944F20882351F0888920E2829FC00193
:104B3000112481559C4EDF91CF91089590E080E043
:104B4000FACFCF93DF93EB01FC012381211104C045
:104B500080E0DF91CF9108952250223028F48FE237
:104B60008883198281E0F5CF60E00E948725009755
:104B700079F3DC0160E080E09EE22D91203299F033
:104B8000883031F49E01260F311DF90190836F5F4B
:104B90009E01260F311DAD0141505109FA0140819E
:104BA000F90140836F5F8F5F8B3039F7FE01E60FAD
:104BB000F11D1082D7CFCF93DF93EC01CB01E881B9
:104BC000F981608171810E94A12528813981D901F3
:104BD000ED91FC91AA81BB818C919081992359F030
:104BE0008936C8F4CF010196F901918380838C91B5
:104BF0008F5F8C93EACF893670F48FE28083E881EF
:104C0000F98180819181019691838083EA81FB8182
:104C100080818F5F8083DF91CF910895CF93DF9361
:104C2000EC018B81882349F1898187FF22C061E0F3
:104C3000CE010E948725FC01892BF9F08081853EF9
:104C4000E1F08B81823040F489899A89AB89BC89F3
:104C5000848F958FA68FB78F8D899E89938F828F32
:104C60008D899E89AF89B88DB58BA48B89818F770B
:104C70008983DF91CF910C94102081E0888380E0BC
:104C8000DF91CF910895CF93DF93EC010E940E2620
:104C90001B82DF91CF91089510928B058091DB1BD1
:104CA0008F7B8B7F8093DB1B0E94197B882321F0F5
:104CB00081EE96E10C94432608958F929F92AF92D5
:104CC000BF92CF92DF92EF92FF92CF938091DB1B46
:104CD000877F8093DB1B80912217882321F08FE14F
:104CE00097E10E94432610921E1710921B1785E32E
:104CF00080931A170E9428E46B017C0120EDC20EFC
:104D000027E0D21EE11CF11CA89561E080911A17E2
:104D10000E9415E261E080911A170E94E2E2209A57
:104D2000289A219A2398229A81E00E945EB085E019
:104D300080931C170E945EB0CAE08FEF0E9452B0B1
:104D4000C150D9F7A89520E030E0A90160E08AE1E0
:104D500097E10E949F1E80931D17813001F10E94F0
:104D600028E46C197D098E099F0997FDECCF81E03D
:104D700080931B178AE197E10E94971E0E9481870A
:104D800087E59AE10E94B586CF91FF90EF90DF9082
:104D9000CF90BF90AF909F908F900C941FF8A895E4
:104DA0002AEA31E040E050E068E08AE197E10E94C1
:104DB0009F1E853069F581E080931E17A89580912C
:104DC0001E17812C912C5401823029F4812C912CB6
:104DD000A12C80E4B82E20E030E0A90167E38AE14D
:104DE00097E10E949F1EA501940169E28AE197E183
:104DF0000E949F1E80931D178823F9F00E9428E4CB
:104E00006C197D098E099F0997FDE5CF8AE0B0CF27
:104E1000C4E00E9457B080931D17C150D1F78A3A61
:104E200011F482E0C9CF0E9428E46C197D098E0933
:104E30009F0997FDB5CF82E09BCF80911E178230EE
:104E4000D1F420E030E0A9016AE38AE197E10E9411
:104E50009F1E882311F088E08BCF0E9457B0807C82
:104E6000803C19F483E080931E170E9457B00E9483
:104E700057B00E9457B08AE197E10E94971E1092A6
:104E80001C1781E00E9480CA81110AC080E00E9444
:104E900080CA811105C00E94D68683E49AE172CF50
:104EA0006CEF76E18FE197E10E940B22811105C042
:104EB0000E94D68682E39AE165CF8091DB1B8860F1
:104EC0008093DB1B0E94818786E29AE15BCFFC0125
:104ED000238121110C94432608954F925F926F9283
:104EE0007F92AF92BF92CF92DF92EF92FF920F9399
:104EF0001F93CF93DF931F92CDB7DEB78C017B0159
:104F00005A01C22EDB0159968D919C91F801928F26
:104F1000818FCB010E94EF22712CF7018085918552
:104F2000A285B3854189528963897489841795075D
:104F3000A607B70708F052C055E0B695A795979514
:104F400087955A95D1F7F82FFF70DF2ED70113966A
:104F50008C91823010F480E0DBC041E050E0BE0173
:104F60006F5F7F4FC7010E94EF230197A1F7F70101
:104F700080859185A285B3854F96A11DB11D80873F
:104F80009187A287B387F0E2DF9EB00111246155BB
:104F90007C4E61157105F9F2DB018C91882341F09B
:104FA000853E09F04CC0772029F077247394B5CF63
:104FB00071100EC08091AF159091B015A091B115F0
:104FC000B091B215F80184879587A687B787D08AF4
:104FD000DB018C918111E9CF772473948C2D82743D
:104FE000823409F0B8CF772009F4A2C0F801D08844
:104FF00061E0C8010E948725009709F4ACCF20E248
:10500000DC011D922A95E9F72BE0F501DC01019006
:105010000D922A95E1F721E238E2FC01318B208BD9
:1050200040E058E057874687338B228B318F208FA3
:10503000578B468B0E941020811109C08CCF4BE00A
:1050400050E0C5010F946E0E892B09F066CFF0E297
:10505000DF9ED00111249D0121553C4EF90183852D
:10506000817121F08C2D827109F0FCC0F801818DD5
:10507000928D4091AF155091B0156091B11570911E
:10508000B2154487558766877787D08AFD01E15539
:10509000FC4E44885588712C612C320155244424DF
:1050A000D80155964D925D926D927C925897428DA3
:1050B000538D70E060E0442955296629772955967B
:1050C0004D935D936D937C935897D9011B962C91CA
:1050D000287109F0B9C0848D958DA68DB78DF80122
:1050E000818B928BA38BB48B81E083838C2D8F700B
:1050F000F801818314821582168217821086118628
:105100001286138681E0C4FE03C0C8010E9474C8E1
:105110000F90DF91CF911F910F91FF90EF90DF9053
:10512000CF90BF90AF907F906F905F904F90089519
:10513000D70113968C911397823009F40CCF5196B6
:105140008D919D910D90BC91A02D803E9F4FAF41C0
:10515000B10508F000CFC7010E94F422882309F4AA
:10516000FACE0E941020882309F4F5CED701599673
:10517000ED91FC915A9714964D905D906D907C90B6
:105180001797B2E04B1A510861087108858504C071
:10519000440C551C661C771C8A95D2F7868597852A
:1051A000A089B189480E591E6A1E7B1E81E080933A
:1051B000B7154092AF155092B0156092B11570922C
:1051C000B215EFEAF3E180E092E0DF019C011D926D
:1051D00021503040E1F7DD24D394D7015996ED9169
:1051E000FC918481D81698F42FEA33E1B301A2012F
:1051F0004D0D511D611D711D8091B8159091B9150E
:105200000E94AC1F882309F4A6CED394E6CF25854F
:1052100080E092E0A0E0B0E004C0880F991FAA1FD0
:10522000BB1F2A95D2F7F701418952896389748996
:10523000840F951FA61FB71F818B928BA38BB48BF6
:105240008FEA93E1D12CDBCE203161F498012F5EFF
:105250003F4F0E94A121882329F084E0D8011396B2
:105260008C9344CFD80113961C9275CE2F923F9207
:105270004F925F926F927F928F929F92AF92BF9266
:10528000CF92DF92EF92FF920F931F93CF93DF9312
:10529000CDB7DEB7C354D1090FB6F894DEBF0FBE49
:1052A000CDBF4C015B016A01222E19821C821C8E2B
:1052B0001F8E6115710521F510E0CE014C960E94FC
:1052C0006727CE0101960E946727812FCD5BDF4FB4
:1052D0000FB6F894DEBF0FBECDBFDF91CF911F9107
:1052E0000F91FF90EF90DF90CF90BF90AF909F9085
:1052F0008F907F906F905F904F903F902F90089588
:10530000FC0183818111D8CFFA0180818F32A9F10C
:105310008B01CE0101967C013C0180E2382E2E01EA
:105320009CE1490E511C2396EFAE23972496FFAEC5
:10533000249722963FAE229721963FAE21973FAE0B
:105340003EAE3DAE3CAE3BAE3AAE39AE38AE3FAA15
:10535000960190E047E0D9018D91882309F448C077
:105360008F3209F445C0282F8E3209F54A3009F4EE
:10537000A3CF98E04AE09D01EECFFB0183818250EC
:105380008B01823060F0618D728DCE014C960E944F
:105390000B228E01045E1F4F882309F48DCFC601B6
:1053A0006C010196F60120812F32D1F3B2CFE2E0F9
:1053B000FAE13491332321F031968313FACF7CCF75
:1053C000491708F479CF813208F476CF8F3709F482
:1053D00073CF3FE9380F3A3110F420EE280FE7E39E
:1053E000F0E0EC0FFD1FE90FF11D20839F5FC3CF9D
:1053F0008FA9803209F460CF6901F90180812F5FA4
:105400003F4F8F32C9F3882301F121E0AE01495C9F
:105410005F4FB801C7010E946D27882309F44CCF64
:105420000A151B0519F0C8010E944326942D852DED
:105430006E147F0431F023969FAD239724968FAD91
:1054400024978701E92EF82E74CF222DAE01495CF6
:105450005F4FB801C4010E946D27182F2ECF0F9304
:105460001F93CF93DF931F921F92CDB7DEB720918A
:10547000DB1B23FF2FC08C01BC0182E00E9401F8DE
:105480001092D21B0E944C26A801BE016F5F7F4F75
:1054900080E00E9408C98C010097E1F069817A815F
:1054A00026E5AC0181EE96E10E9436298823C9F0F9
:1054B0008091DB1B81608093DB1BC8010E942EF86A
:1054C0001092C21AB80189E09BE10E94C3868AE06B
:1054D0000E9464860F900F90DF91CF911F910F91E2
:1054E0000895B8018EE19BE10E94C3868BE19BE1A8
:1054F0000E94B586EFCFEF92FF920F931F93CF9349
:10550000DF9300D000D01F92CDB7DEB72091DB1B18
:1055100023FF57C0F62E8C0181E0681709F465C09F
:10552000681708F45BC082E0681709F4E1C00E94C4
:105530004C26A801BE016F5F7F4F81E00E9408C921
:105540008C010097F1F169817A8121E0AC0181EE53
:1055500096E10E943629882309F4D1C08091F21681
:105560009091F316A091F416B091F5168093D31B89
:105570009093D41BA093D51BB093D61B1092D71B2E
:105580001092D81B1092D91B1092DA1BB8018CE72D
:105590009AE10E94C3864091D31B5091D41B609125
:1055A000D51B7091D61B84E79AE10E94E9918AE0AD
:1055B0000E94648685E69AE10E94B586C8010E9431
:1055C0002EF827960FB6F894DEBF0FBECDBFDF9141
:1055D000CF911F910F91FF90EF900895B80182E055
:1055E0000E9401F81092D21BA2CF0E94197B811158
:1055F00005C0B80181E00E9401F899CFE090D21B6C
:10560000EE2049F00E94D68684EC9AE10E94B5868D
:1056100080E00E94A0C781E995E09E838D838FE2A0
:1056200080939005FF82CE0105969A838983029626
:105630009C838B838BE1F82E8091D11BE81658F464
:10564000EF9CB00111246D53754ECE0101960E945E
:10565000DB25E394F1CF8F818B3558F461EE76E151
:10566000CE0101960E94DB258D819E8101979E834C
:105670008D83ED81FE811082E091D21B84E0E89F52
:10568000F0011124E457FA4F8091D71B9091D81B59
:10569000A091D91BB091DA1B80839183A283B3833D
:1056A0000E948187B8018BEA9AE10E94C3866091CB
:1056B000D21B89E6689FB001112460577A4F80EAB7
:1056C0009AE10E94C3864091D71B5091D81B6091EC
:1056D000D91B7091DA1B8AE99AE10E94E9918AE06C
:1056E0000E9464868091D21B8F5F8093D21B1FCF54
:1056F0000E9481878AE89AE10E94B58618CFB80196
:105700008EE19BE10E94C3868BE19BE10E94B586FE
:1057100058CF6F927F928F929F92AF92BF92CF920B
:10572000DF92EF92FF920F931F93CF93DF93CDB74A
:10573000DEB7C356D1090FB6F894DEBF0FBECDBF9A
:105740005C018B016DB67EB67E0187E5E80EF11C2B
:1057500046EC5CE0BE016F5F7F4FC5010E940725EC
:1057600018160CF0AEC08C858871803109F076C0B7
:105770008DB69EB6BE016F5F7F4FC7010E94961F18
:105780000115110509F466C0F8018081882309F428
:1057900061C001900020E9F73197CF01801B910B88
:1057A00020E0F70101900020E9F73197EE19FF0999
:1057B000E80FF91F32968DB79EB78E1B9F0B0FB661
:1057C000F8949EBF0FBE8DBFEDB7FEB731966F0147
:1057D000B801222311F065E373E0C6010F94B60E01
:1057E000B701C6010F94970E65E373E0C6010F94ED
:1057F000970E19A21CA221E0A701B501CE01819646
:105800000E94362981110AC00E948187B70182E176
:105810009AE10E94C3868AE00E9464868BE1FE01C1
:10582000B196DE01DC9601900D928A95E1F7B60102
:10583000CE01CC960E94892BCE01CC960E94672780
:10584000CE0181960E9467270FB6F8949EBE0FBEC8
:105850008DBE7ECF21E081E090E0A3CFCE01019606
:105860000E946F1F882309F473CFBE016F5F7F4FC3
:1058700089EB9CE00E94961F68010115110561F4F7
:1058800089EBC82E8CE0D82EF60181916F01882318
:1058900059F00E946486F8CFF60181916F01882348
:1058A00079F30E946486F8CF80E20E9464866D8D51
:1058B0007E8D8F8D98A14AE00E9485910E9471ADE6
:1058C00047CF0FB6F8947EBE0FBE6DBECD59DF4FE9
:1058D0000FB6F894DEBF0FBECDBFDF91CF911F9101
:1058E0000F91FF90EF90DF90CF90BF90AF909F907F
:1058F0008F907F906F9008950F930FB70F93009143
:105900006E000B7F00936E0078940F930BB70F938C
:105910000CB70F921F922F933F934F935F936F9308
:105920007F938F939F93AF93BF93EF93FF93112434
:105930000E94BB34FF91EF91BF91AF919F918F91E6
:105940007F916F915F914F913F912F911F900F9099
:105950000CBF0F910BBF0F910460F89400936E0081
:105960000F910FBF0F911895CF93DF93C091010D49
:10597000D091020D209729F16091FD0C7091FE0CE1
:105980008091FF0C9091000D0F94870C6E5F7F4FFC
:1059900024976C177D07ACF47093E8066093E706D4
:1059A0000E9428E4605A75418F4F9F4F6093E9062B
:1059B0007093EA068093EB069093EC06DF91CF910B
:1059C00008951092E9061092EA061092EB061092E2
:1059D000EC06F4CF10928405809157029091580202
:1059E0000F971816190614F490E080E09093D316E0
:1059F0008093D2160E9434E41092020D1092010D91
:105A00000E94B42C80915702909158020F9718165B
:105A1000190614F490E080E09093D3168093D21688
:105A20000E9434E41092D4162C981092020D109219
:105A3000010D1092030D809102018072809300018C
:105A400008950F931F93CF93C82F8B018091760CED
:105A50008130A9F40E94D686C8010E94B58688E4E8
:105A600098E10E94B586C7FD28C06C2FCC0F770B3C
:105A7000880B990B0E9407928AE00E9464860E941C
:105A8000EA2C8091AF06811120C081E08093AF069F
:105A900080E88093760CC5E1C150469A99F069E19F
:105AA00070E080E090E00E94F5E3469860E570E0E9
:105AB00080E090E00E94F5E3EFCF84E498E10E945B
:105AC000B586DACF80E00E94A0C7CF911F910F91D9
:105AD00008958F929F92AF92BF92CF92DF92EF92F2
